{"abi":[{"type":"constructor","inputs":[{"name":"_owner","type":"address","internalType":"address"}],"stateMutability":"nonpayable"},{"type":"function","name":"balance","inputs":[],"outputs":[{"name":"","type":"uint256","internalType":"uint256"}],"stateMutability":"view"},{"type":"function","name":"deposit","inputs":[],"outputs":[],"stateMutability":"payable"},{"type":"function","name":"getVaultInfo","inputs":[],"outputs":[{"name":"","type":"address","internalType":"address"},{"name":"","type":"uint256","internalType":"uint256"}],"stateMutability":"view"},{"type":"function","name":"owner","inputs":[],"outputs":[{"name":"","type":"address","internalType":"address"}],"stateMutability":"view"},{"type":"function","name":"withdraw","inputs":[{"name":"_amount","type":"uint256","internalType":"uint256"}],"outputs":[],"stateMutability":"nonpayable"}],"bytecode":{"object":"0x608060405234801561001057600080fd5b506040516103ac3803806103ac83398101604081905261002f91610054565b600080546001600160a01b0319166001600160a01b0392909216919091179055610084565b60006020828403121561006657600080fd5b81516001600160a01b038116811461007d57600080fd5b9392505050565b610319806100936000396000f3fe60806040526004361061004a5760003560e01c80632e1a7d4d1461004f5780637f98aa71146100715780638da5cb5b146100b9578063b69ef8a8146100f1578063d0e30db014610115575b600080fd5b34801561005b57600080fd5b5061006f61006a366004610288565b61011d565b005b34801561007d57600080fd5b506100956000546001546001600160a01b0390911691565b604080516001600160a01b0390931683526020830191909152015b60405180910390f35b3480156100c557600080fd5b506000546100d9906001600160a01b031681565b6040516001600160a01b0390911681526020016100b0565b3480156100fd57600080fd5b5061010760015481565b6040519081526020016100b0565b61006f610215565b6000546001600160a01b031633146101865760405162461bcd60e51b815260206004820152602160248201527f4f6e6c7920746865206f776e65722063616e2077697468647261772066756e646044820152607360f81b60648201526084015b60405180910390fd5b6001548111156101cd5760405162461bcd60e51b8152602060048201526012602482015271496e73756666696369656e742066756e647360701b604482015260640161017d565b80600160008282546101df91906102b7565b9091555050604051339082156108fc029083906000818181858888f19350505050158015610211573d6000803e3d6000fd5b5050565b6000546001600160a01b0316331461026f5760405162461bcd60e51b815260206004820181905260248201527f4f6e6c7920746865206f776e65722063616e206465706f7369742066756e6473604482015260640161017d565b346001600082825461028191906102d0565b9091555050565b60006020828403121561029a57600080fd5b5035919050565b634e487b7160e01b600052601160045260246000fd5b818103818111156102ca576102ca6102a1565b92915050565b808201808211156102ca576102ca6102a156fea264697066735822122060240ae0d09ce30db834ce0ca4e16e5c268e37db1c8af6ab73cc46031a8ee17164736f6c63430008180033","linkReferences":{}},"methodIdentifiers":{"balance()":"b69ef8a8","deposit()":"d0e30db0","getVaultInfo()":"7f98aa71","owner()":"8da5cb5b","withdraw(uint256)":"2e1a7d4d"},"id":25}