{"abi":[{"type":"function","name":"addVault","inputs":[],"outputs":[{"name":"vaultId","type":"uint256","internalType":"uint256"}],"stateMutability":"nonpayable"},{"type":"function","name":"deposit","inputs":[{"name":"_vaultId","type":"uint256","internalType":"uint256"}],"outputs":[],"stateMutability":"payable"},{"type":"function","name":"getMyVaults","inputs":[],"outputs":[{"name":"","type":"uint256[]","internalType":"uint256[]"}],"stateMutability":"view"},{"type":"function","name":"getVault","inputs":[{"name":"_vaultId","type":"uint256","internalType":"uint256"}],"outputs":[{"name":"","type":"address","internalType":"address"},{"name":"balance","type":"uint256","internalType":"uint256"}],"stateMutability":"view"},{"type":"function","name":"getVaultsLength","inputs":[],"outputs":[{"name":"","type":"uint256","internalType":"uint256"}],"stateMutability":"view"},{"type":"function","name":"vaults","inputs":[{"name":"","type":"uint256","internalType":"uint256"}],"outputs":[{"name":"owner","type":"address","internalType":"address"},{"name":"balance","type":"uint256","internalType":"uint256"}],"stateMutability":"view"},{"type":"function","name":"vaultsByOwner","inputs":[{"name":"","type":"address","internalType":"address"},{"name":"","type":"uint256","internalType":"uint256"}],"outputs":[{"name":"","type":"uint256","internalType":"uint256"}],"stateMutability":"view"},{"type":"function","name":"withdraw","inputs":[{"name":"_vaultId","type":"uint256","internalType":"uint256"},{"name":"_amount","type":"uint256","internalType":"uint256"}],"outputs":[],"stateMutability":"nonpayable"},{"type":"event","name":"VaultAdded","inputs":[{"name":"owner","type":"address","indexed":true,"internalType":"address"},{"name":"vaultId","type":"uint256","indexed":true,"internalType":"uint256"}],"anonymous":false},{"type":"event","name":"VaultDeposit","inputs":[{"name":"vaultId","type":"uint256","indexed":true,"internalType":"uint256"},{"name":"amount","type":"uint256","indexed":false,"internalType":"uint256"}],"anonymous":false},{"type":"event","name":"VaultWithdraw","inputs":[{"name":"vaultId","type":"uint256","indexed":true,"internalType":"uint256"},{"name":"amount","type":"uint256","indexed":false,"internalType":"uint256"}],"anonymous":false}],"bytecode":{"object":"0x608060405234801561001057600080fd5b50610743806100206000396000f3fe60806040526004361061007b5760003560e01c80638c64ea4a1161004e5780638c64ea4a146100ff5780639403b6341461013e578063b6b55f251461015e578063fb3ddf571461017157600080fd5b80631a0121db14610080578063441a3e70146100b357806344b19dfc146100d55780638c533411146100ea575b600080fd5b34801561008c57600080fd5b506100a061009b3660046105b8565b610193565b6040519081526020015b60405180910390f35b3480156100bf57600080fd5b506100d36100ce3660046105f0565b6101c4565b005b3480156100e157600080fd5b506000546100a0565b3480156100f657600080fd5b506100a0610328565b34801561010b57600080fd5b5061011f61011a366004610612565b610401565b604080516001600160a01b0390931683526020830191909152016100aa565b34801561014a57600080fd5b5061011f610159366004610612565b610439565b6100d361016c366004610612565b610499565b34801561017d57600080fd5b50610186610557565b6040516100aa919061062b565b600160205281600052604060002081815481106101af57600080fd5b90600052602060002001600091509150505481565b81600081815481106101d8576101d861066f565b60009182526020909120600290910201546001600160a01b031633146102195760405162461bcd60e51b815260040161021090610685565b60405180910390fd5b6000838154811061022c5761022c61066f565b9060005260206000209060020201600101548211156102825760405162461bcd60e51b8152602060048201526012602482015271496e73756666696369656e742066756e647360701b6044820152606401610210565b81600084815481106102965761029661066f565b906000526020600020906002020160010160008282546102b691906106e1565b9091555050604051339083156108fc029084906000818181858888f193505050501580156102e8573d6000803e3d6000fd5b50827f63b895becf91dccde54614b8b8a17bae84475a0f9f5dd487b0d9e36261350c458360405161031b91815260200190565b60405180910390a2505050565b604080518082018252338082526000602080840182815282546001808201855584805286517f290decd9548b62a8d60345a988386fc84ba6bc95484008f6362f93160ef3e563600290930292830180546001600160a01b0319166001600160a01b0390921691909117905591517f290decd9548b62a8d60345a988386fc84ba6bc95484008f6362f93160ef3e564909101558383528082528583208054918201815583529082200181905592518391907f56ef0a10aee7f094f2e81758ee977e1638d6197b6e92859b50cfc0ffebb30e94908390a35090565b6000818154811061041157600080fd5b6000918252602090912060029091020180546001909101546001600160a01b03909116915082565b6000806000838154811061044f5761044f61066f565b6000918252602082206002909102015481546001600160a01b0390911691908590811061047e5761047e61066f565b90600052602060002090600202016001015491509150915091565b80600081815481106104ad576104ad61066f565b60009182526020909120600290910201546001600160a01b031633146104e55760405162461bcd60e51b815260040161021090610685565b34600083815481106104f9576104f961066f565b9060005260206000209060020201600101600082825461051991906106fa565b909155505060405134815282907fec254a7a2005fd128fbcbe58024c7f5d0129df841f64d137dddb0348a9e0a7699060200160405180910390a25050565b336000908152600160209081526040918290208054835181840281018401909452808452606093928301828280156105ae57602002820191906000526020600020905b81548152602001906001019080831161059a575b5050505050905090565b600080604083850312156105cb57600080fd5b82356001600160a01b03811681146105e257600080fd5b946020939093013593505050565b6000806040838503121561060357600080fd5b50508035926020909101359150565b60006020828403121561062457600080fd5b5035919050565b6020808252825182820181905260009190848201906040850190845b8181101561066357835183529284019291840191600101610647565b50909695505050505050565b634e487b7160e01b600052603260045260246000fd5b60208082526026908201527f4f6e6c7920746865206f776e65722063616e20706572666f726d20746869732060408201526530b1ba34b7b760d11b606082015260800190565b634e487b7160e01b600052601160045260246000fd5b818103818111156106f4576106f46106cb565b92915050565b808201808211156106f4576106f46106cb56fea2646970667358221220a2061917d89cfb979da62d2c6ac6ca7f2bb4773dee63928adf883c3d2c54c5c464736f6c63430008180033","linkReferences":{}},"methodIdentifiers":{"addVault()":"8c533411","deposit(uint256)":"b6b55f25","getMyVaults()":"fb3ddf57","getVault(uint256)":"9403b634","getVaultsLength()":"44b19dfc","vaults(uint256)":"8c64ea4a","vaultsByOwner(address,uint256)":"1a0121db","withdraw(uint256,uint256)":"441a3e70"},"id":25}